:1000000014C1000043C1000041C100003FC1000015
:100010003DC100003BC1000039C1000037C10000F4
:1000200035C1000033C1000031C100002FC1000004
:100030002DC100002BC1000029C1000027C1000014
:1000400025C1000023C1000021C100001FC1000024
:100050001DC100001BC1000019C10000ABC500009C
:1000600015C1000062C4000037C400000FC10000C9
:100070000DC100000BC1000009C1000007C1000054
:1000800005C1000003C1000001C10000FFC0000065
:10009000FDC00000FBC00000F9C00000D5C5000095
:1000A000F5C00000F3C00000F1C00000EFC0000088
:1000B000EDC00000EBC00000E9C00000E7C0000098
:1000C000E5C00000E3C00000E1C00000DCC30000A8
:1000D000B1C30000DBC00000D9C00000D7C00000E1
:1000E000D5C00000B002B302A202A602AC02EA022E
:1000F000B702BB02C102C502C902CF02D302D702B6
:10010000EA02DD02E102E5020000210024002700EE
:100110002A002D0030003300010100000401070116
:100120000A0100002200250028002B002E003100CB
:10013000340002010000050108010B0100000A0B58
:1001400002090C0D0E080703040100000000000066
:10015000000000000000000000000000000000009F
:10016000000000000000000012111000000000005C
:10017000000000000000000000000000000000007F
:100180000000000020002300260029002C002F0082
:100190003200000100000301060109010505050503
:1001A000070508080808020202020A0A08080404EF
:1001B000040401010101010101010303030303031D
:1001C0000303040707070C0C0C0C0C0C0C0C0202AC
:1001D000020206060606060606060B0B0B0B0B0BA9
:1001E0000B0B010210202008081020401020408036
:1001F00002010201080402010102040810204080EB
:100200008040201008040201800402018040201078
:1002100008040201080402010102040810204080C1
:100220000102040810204080260D11241FBECFEFCC
:10023000D1E2DEBFCDBF00E00CBF13E0A0E0B2E032
:10024000ECECFBE100E00BBF02C007900D92AC3B71
:10025000B107D9F725E0ACEBB3E001C01D92A73D93
:10026000B207E1F711E0C5E1D1E000E006C0219757
:100270000109802FFE010E94D80DC431D10780E012
:100280000807A9F70E948C0A0C94E40DB9CECF920E
:10029000DF92EF92FF920F931F93CF93DF936C0146
:1002A0007A018B01C0E0D0E0CE15DF0589F0D801DE
:1002B0006D918D01D601ED91FC910190F081E02DC1
:1002C000C6011995892B11F47E0102C02196ECCF4D
:1002D000C701DF91CF911F910F91FF90EF90DF90B9
:1002E000CF900895FC01A089B1898C91A689B78926
:1002F00082FD0FC09C91818D8F5F8F73228D82173D
:1003000049F0218DDF01A20FB11D5D969C93818F75
:1003100008958C910895FC01538D448D252F30E074
:10032000842F90E0821B930B541710F0CF96089502
:1003300001970895FC01918D828D981761F0828D4F
:10034000DF01A80FB11D5D968C91928D9F5F9F7309
:10035000928F90E008958FEF9FEF0895FC01918DAB
:10036000828D981731F0828DE80FF11D858D90E018
:1003700008958FEF9FEF0895FC01918D228D892FB5
:1003800090E0805C9F4F821B91098F73992708959D
:1003900080E894E0F1DF21E0892B09F420E0822F4E
:1003A00008958DE195E0E8DF21E0892B09F420E054
:1003B000822F0895FC01848DDF01A80FB11DA35A7F
:1003C000BF4F2C91848D90E001968F739927848F75
:1003D000A689B7892C93A089B1898C9180648C936C
:1003E000938D848D981306C00288F389E02D808157
:1003F0008F7D80830895EF92FF920F931F93CF9389
:10040000DF93EC0181E0888F9B8D8C8D981305C064
:10041000E889F989808185FD23C0F62E0B8D10E0D7
:100420000F5F1F4F0F731127E02E8C8DE8120BC04A
:100430000FB607FCFACFE889F989808185FFF5CFEF
:10044000CE01B8DFF2CF8B8DFE01E80FF11DE35A2C
:10045000FF4FF0820B8FEA89FB898081806207C0A1
:10046000EE89FF896083E889F989808180648083CF
:1004700081E090E0DF91CF911F910F91FF90EF907D
:100480000895CF93DF93EC01888D8823C1F0EA892A
:10049000FB89808185FD05C0A889B9898C9186FD7D
:1004A0000EC00FB607FCF5CF808185FFF2CFA8897B
:1004B000B9898C9185FFEDCFCE017CDFE8CFDF914C
:1004C000CF91089580E090E0892B19F06ADF8111C7
:1004D00020C080E090E0892B41F080E090E0892B03
:1004E00021F00E940000811117C080E090E0892B6C
:1004F00019F04EDF811113C080E090E0892BA1F04C
:1005000080E090E0892B81F00E94000081110AC0F8
:1005100008950E940000DDCF0E940000E6CF0E94F7
:100520000000EACF0C940000089590E0FC013197A0
:10053000E231F10508F04EC08827EE58FF4F8F4F8B
:100540000C94D80D809180008F7703C0809180003B
:100550008F7D80938000089580918000877FF9CF00
:1005600084B58F7702C084B58F7D84BD0895809156
:10057000B0008F7703C08091B0008F7D8093B00072
:100580000895809190008F7707C0809190008F7DB3
:1005900003C080919000877F8093900008958091A0
:1005A000A0008F7707C08091A0008F7D03C080914D
:1005B000A000877F8093A0000895809120018F770D
:1005C00007C0809120018F7D03C080912001877F2B
:1005D0008093200108953FB7F89480910D04909185
:1005E0000E04A0910F04B091100426B5A89B05C07D
:1005F0002F3F19F00196A11DB11D3FBFBA2FA92FA2
:10060000982F8827820F911DA11DB11DBC01CD011E
:1006100042E0660F771F881F991F4A95D1F708950A
:1006200085ED8093BC008091BC0084FDFCCF1092CE
:100630005B0408954091E303262F30E0240F311D21
:1006400021323105DCF420915B042430C9F4FC0133
:1006500080E090E0861758F43091E3032191DC01AB
:10066000AF53BC4FA30FB11D2C930196F3CF8091D4
:10067000E303680F6093E30380E0089581E0089549
:1006800082E008950895E091140480911304E8171E
:1006900030F4F0E0EB5EFB4F808190E008958FEF47
:1006A0009FEF08959091140480911304981750F4CB
:1006B000E92FF0E0EB5EFB4F208130E09F5F9093ED
:1006C000140402C02FEF3FEFC90108958091130475
:1006D00090E020911404821B91090895CF92DF923B
:1006E000EF92FF920F931F93CF93DF937C01262FFE
:1006F000972F8A0180915C04882391F0C62FD72F11
:100700006E01C40ED51ECC15DD0569F06991D701C7
:10071000ED91FC910190F081E02DC7011995F3CF87
:10072000642F822F87DFC801DF91CF911F910F9136
:10073000FF90EF90DF90CF900895CF93DF931F92BB
:10074000CDB7DEB7698320915C042223D1F02091DC
:100750007F04203240F021E030E0FC01338322832B
:1007600080E090E014C080915D04E82FF0E0E25A50
:10077000FB4F998190838F5F80935D0480937F040A
:1007800004C061E0CE01019655DF81E090E00F905A
:10079000DF91CF910895089580E090E00895CF9380
:1007A000DF9391E090935C0499E290937E04109221
:1007B0005D0410927F04682F60688AEB95E0BDDFCE
:1007C0004ED482E090E0F4D48AEB95E06BDFEC014C
:1007D0008AEB95E067DF20E030E0382FC9018C2BF1
:1007E0009D2BDF91CF910895CF93DF931F921F929E
:1007F000CDB7DEB790E899838A83CE010196AAD45B
:100800000F900F90DF91CF910895CF93DF931F92B8
:100810001F92CDB7DEB780E489836A83CE0101964B
:1008200099D481E090E00F900F90DF91CF910895DF
:100830000E94E00D1F920F920FB60F9211240BB67B
:100840000F922F933F934F935F936F937F938F9369
:100850009F93AF93BF93EF93FF9380E894E0AADD5B
:10086000FF91EF91BF91AF919F918F917F916F9188
:100870005F914F913F912F910F900BBE0F900FBE44
:100880000F901F9018951F920F920FB60F92112480
:100890000BB60F922F933F934F935F936F937F937A
:1008A0008F939F93AF93BF93EF93FF9380E894E070
:1008B00019DDFF91EF91BF91AF919F918F917F9142
:1008C0006F915F914F913F912F910F900BBE0F90C1
:1008D0000FBE0F901F9018951F920F920FB60F9298
:1008E00011240BB60F922F933F934F935F936F9307
:1008F0007F938F939F93AF93BF93EF93FF938DE17C
:1009000095E058DDFF91EF91BF91AF919F918F914D
:100910007F916F915F914F913F912F910F900BBEFF
:100920000F900FBE0F901F9018951F920F920FB649
:100930000F9211240BB60F922F933F934F935F9317
:100940006F937F938F939F93AF93BF93EF93FF9397
:100950008DE195E0C7DCFF91EF91BF91AF919F9141
:100960008F917F916F915F914F913F912F910F9058
:100970000BBE0F900FBE0F901F9018951F93CF9333
:10098000DF93282F30E0F901E45CFE4F8491F901F8
:10099000EE51FE4FD491F901E456FE4FC491CC23A1
:1009A000C1F0162F8111C1DDEC2FF0E0EE0FFF1F1B
:1009B000EE5DFE4FA591B4918FB7F894111105C06B
:1009C0009C91ED2FE095E92302C0EC91ED2BEC9387
:1009D0008FBFDF91CF911F910895CF93DF9390E068
:1009E000FC01EE51FE4F2491FC01E456FE4F849130
:1009F000882361F190E0880F991FFC01E85FFE4FAA
:100A0000C591D491FC01EE5DFE4FA591B4916111A9
:100A100009C09FB7F8948881209582238883EC9140
:100A20002E230BC0623061F49FB7F8943881822F77
:100A3000809583238883EC912E2B2C939FBF06C037
:100A40008FB7F894E8812E2B28838FBFDF91CF9149
:100A500008958F929F92AF92BF92CF92DF92EF92C2
:100A6000FF926B017C01B7DD4B015C01C114D10425
:100A7000E104F104E9F0AFDDDC01CB01881999094B
:100A8000AA09BB09883E9340A105B10578F321E08E
:100A9000C21AD108E108F10888EE880E83E0981E9A
:100AA000A11CB11CC114D104E104F10421F7DECF73
:100AB000FF90EF90DF90CF90BF90AF909F908F907E
:100AC0000895CF92DF92EF92FF92C090BD03D09035
:100AD000BE03E090BF03F090C0039B01AC012C1952
:100AE0003D094E095F0969017A0109F45EC0DC0124
:100AF000CB018093BD039093BE03A093BF03B0933B
:100B0000C003121613061406150614F460E001C0A3
:100B100061E08DE333DFD701C601F7FE07C0B09572
:100B2000A095909581959F4FAF4FBF4F40E050E00B
:100B3000BA0121E06C017D0130EAC31A3FE0D30A1B
:100B4000E108F108481759076A077B0729F1309136
:100B5000BC03311104C08E9A2093BC0303C08E984D
:100B60001092BC03413AEFE05E076105710548F061
:100B70004C155D056E057F0520F4F0EAFA95F1F756
:100B800006C0E7ECF0E03197F1F700C000004F5FDE
:100B90005F4F6F4F7F4FD6CF60ED77E080E090E002
:100BA000FF90EF90DF90CF9054CFFF90EF90DF90C9
:100BB000CF9008951F920F920FB60F9211242F938A
:100BC0003F938F939F93AF93BF938091090490912C
:100BD0000A04A0910B04B0910C043091080423E0A6
:100BE000230F2D3720F40196A11DB11D05C026E865
:100BF000230F0296A11DB11D2093080480930904C0
:100C000090930A04A0930B04B0930C0480910D04FC
:100C100090910E04A0910F04B09110040196A11DB3
:100C2000B11D80930D0490930E04A0930F04B09314
:100C30001004BF91AF919F918F913F912F910F9091
:100C40000FBE0F901F9018951F920F920FB60F9224
:100C500011240BB60F922F933F934F935F936F9393
:100C60007F938F939F93AF93BF93EF93FF93809165
:100C7000B900887F803609F49CC068F5883209F491
:100C80005BC090F4803109F454C038F4882309F42F
:100C9000F6C0883009F44DC0F5C0883109F44CC065
:100CA000803209F45DC0EEC0803409F468C048F4B5
:100CB000803309F455C0883309F0E4C080935904A7
:100CC000D8C0803509F44FC0883509F45DC0883438
:100CD00009F0D8C0D6C0883909F4C7C0A8F488374D
:100CE00009F467C038F4883609F463C0803709F422
:100CF00060C0C8C0883809F4B8C0803909F45FC042
:100D0000803809F0BFC05BC0803B09F486C038F46E
:100D1000803A09F466C0883A09F47FC0B3C0803CC9
:100D200009F4A7C0883C09F4A4C0883B09F48AC030
:100D3000A9C08091360410C0909158048091570446
:100D4000981770F5E091580481E08E0F8093580455
:100D5000F0E0E95CFB4F80818093BB0085EC86C0AE
:100D6000809359048EC0E091580481E08E0F8093E7
:100D700058048091BB00F0E0E95CFB4F80839091C8
:100D80005804809157046EC0E091580481E08E0FA2
:100D9000809358048091BB00F0E0E95CFB4F8083B6
:100DA00080915A0481116DC081E08093350484EAFA
:100DB00061C083E080935B0410920704CFCF8091E1
:100DC0000704803208F051C0E091070481E08E0FE3
:100DD000809307048091BB00F0E0E951FC4F8083D1
:100DE000BDCF85EC8093BC0010925B04809107041A
:100DF000803230F4E0910704F0E0E951FC4F1082BA
:100E00006091070470E0E091E503F091E60387EE5E
:100E100093E019951092070435C084E080935B0439
:100E20001092E4031092E303E091E103F091E203F6
:100E300019958091E303811105C081E08093E3035C
:100E40001092C103E091E40381E08E0F8093E403EC
:100E5000F0E0EF53FC4F80818093BB009091E4035E
:100E60008091E303981708F479CF85E88093BC005C
:100E700009C085EC8093BC0010925B0403C0109203
:100E80005904CEDBFF91EF91BF91AF919F918F916C
:100E90007F916F915F914F913F912F910F900BBE7A
:100EA0000F900FBE0F901F90189510925B0481E079
:100EB00080935A041092350461E084E15FDD61E0C3
:100EC00085E15CDDE9EBF0E080818E7F80838081CD
:100ED0008D7F808388E48093B80085E48093BC0094
:100EE00008956115710579F0FB0101900020E9F783
:100EF0003197AF01461B570BDC01ED91FC9102804D
:100F0000F381E02D199480E090E00895EACF8130DC
:100F1000910591F082309105E1F0892B71F560E344
:100F200072E080E894E0DDDF64E670E080E090E06D
:100F300090DD6CE472E019C068E672E080E894E04D
:100F4000D0DF64E670E080E090E083DD62E872E08C
:100F50000CC06CE972E080E894E0C3DF64E670E006
:100F600080E090E076DD67EB72E080E894E0B9DF46
:100F700064E670E080E090E06CDD68EB7BE080E0B0
:100F800090E067DD62ED72E080E894E0AADF68EE51
:100F900073E080E090E05DDD6CED72E080E894E06D
:100FA000A0DF60ED77E080E090E053CD66EF72E087
:100FB00080E894E096DF64E670E080E090E049DD50
:100FC00066EF72E080E894E08CDF64E670E080E039
:100FD00090E03FDD62E173E080E894E082DF60ED65
:100FE00077E080E090E035DD6EE273E080E894E049
:100FF00078DF68EE73E080E090E02BDD6CED72E06E
:1010000080E894E06EDF68EE73E080E090E021CD50
:10101000FC01A089B18982E08C93A485B5851C92DE
:10102000A685B78580E18C93108EA489B58986E06A
:101030008C93A289B3898C9180618C93A289B389A6
:101040008C9188608C93A289B3898C9180688C93F1
:101050000288F389E02D80818F7D8083089520911F
:101060007F0490917E04213208F04AC080915B0495
:101070008111FCCF32E030935B0431E030935A04AD
:101080003FEF309359041092580420935704AEE573
:10109000B4E047E354E0FA013E2F341B321718F452
:1010A0003D913193F9CF1092360420913604990F77
:1010B000922B9093360490913504913061F4109204
:1010C0003504909136049093BB009091BC0093FD41
:1010D000F8CF95EC01C095EE9093BC0090915B0425
:1010E0009230E1F3909159049F3F79F08091590437
:1010F000803241F080915904803331F084E005C0A2
:1011000081E003C082E001C083E010925D04109290
:101110007F0410925C040895CF93DF931F92CDB7A4
:10112000DEB791E090935C0499E290937E04109274
:101130005D0410927F04682F60688AEB95E0498314
:10114000FCDA4981642F8AEB95E0F7DA0F90DF91A2
:10115000CF9185CFCF93DF93EC0181E080935C0446
:101160008EE380937E0410925D0410927F04688168
:101170008AEB95E0E2DA69818AEB95E0DEDADF91CD
:10118000CF916DCFCF93C62F91E090935C0492E600
:1011900090937E0410925D0410927F04682F8AEB76
:1011A00095E0CBDA6C2F8AEB95E0C7DACF9157CF79
:1011B00090915B049111FCCF813208F080E291E0C4
:1011C00090935B0490935A042FEF2093590410924C
:1011D0005804280F209357049093360490913604B6
:1011E00092659093360490913504913061F4109299
:1011F0003504909136049093BB009091BC0093FD10
:10120000F8CF95EC01C095EE9093BC0090915B04F3
:101210009130E1F390915804981710F4809158049C
:10122000A7E3B4E025E134E0F9019E2F921B981763
:1012300018F49D919193F9CF1092140480931304A4
:101240000895CF93DF931092140410921304109218
:101250005D0410927F0429DE81E080935C0489E2C2
:1012600080937E0462E98AEB95E067DAF8DE81E03C
:1012700090E09EDF8AEB95E015DA843411F080313E
:10128000A1F581E08093C605C091C905D091CA053A
:10129000AE0160E070E040DFD093CA05C093C9059D
:1012A000C091C705D091C8058091C605811101C0C4
:1012B000C8DFAE0160E070E08FE02EDFD093C8059C
:1012C000C093C70541E050E060E070E080E024DFBB
:1012D00063E070E080E090E0BCDB43E050E060E081
:1012E00070E080E019DF81E001C080E0DF91CF9104
:1012F00008958F929F92AF92BF92CF92DF92EF921A
:10130000FF920F931F93CF93DF93CDB7DEB7A197D3
:101310000FB6F894DEBF0FBECDBF6C01990FEE087B
:10132000FF08F7FE31C0E091CD05F091CE050190A8
:10133000F081E02D6DE28DEC95E019958C0122276E
:101340003327A9012C193D094E095F0919A2CE01C5
:1013500081967C019AE0892E912CA12CB12CCA0196
:10136000B901A5019401E6D3605DF70162937F01A5
:10137000211531054105510591F7BF018DEC95E02F
:10138000B0DD800F911F1DC0A701960119A28E012B
:101390000F5D1F4F8AE0C82ED12CE12CF12CCA0121
:1013A000B901A7019601C6D3605DF80162938F0170
:1013B000211531054105510591F7BF018DEC95E0EF
:1013C00090DDA1960FB6F894DEBF0FBECDBFDF91C2
:1013D000CF911F910F91FF90EF90DF90CF90BF9032
:1013E000AF909F908F9008950F931F9361E080912D
:1013F000CB05F3DA60E08091CB05C0DA83E090E0C2
:101400000197F1F761E08091CB05B8DA8FE090E0C9
:101410000197F1F760E08091CB05B0DA60E0809150
:10142000CB05DBDA8091CB059091CC059927FC01A7
:10143000EE51FE4F6491FC01E456FE4FE491F0E062
:10144000EE0FFF1FEE57FE4F8591949100E412E4DA
:101450002FE030E0462F1BD0611571058105910505
:1014600049F0DC01CB010196A11DB11DBC01CD01EC
:101470009F7003C060E070E0CB012AE330E040E001
:1014800050E07AD3CA01B9011F910F910895CF920C
:10149000DF92EF92FF920F931F93E82FF92F05C071
:1014A000015011092109310961F1908196239417A6
:1014B000B9F305C0015011092109310911F19081D9
:1014C00096239413F7CFC12CD12CE12CF12C0AC018
:1014D0008FEFC81AD80AE80AF80A0C151D052E0560
:1014E0003F0579F080818623841791F36C2D7D2D43
:1014F0008E2D9F2D1F910F91FF90EF90DF90CF9039
:10150000089560E070E080E090E01F910F91FF90FF
:10151000EF90DF90CF900895CF93DF931F921F92AB
:10152000CDB7DEB7789484B5826084BD84B5816020
:1015300084BD85B5826085BD85B5816085BD80919E
:101540006E00816080936E00109281008091810016
:10155000826080938100809181008160809381000E
:10156000809180008160809380008091B1008460D0
:101570008093B1008091B00081608093B000809131
:1015800091008260809391008091910081608093AE
:101590009100809190008160809390008091A100E3
:1015A00082608093A1008091A10081608093A1005E
:1015B0008091A00081608093A000809121018260D1
:1015C000809321018091210181608093210180918C
:1015D000200181608093200180917A008460809353
:1015E0007A0080917A00826080937A0080917A00FC
:1015F000816080937A0080917A00806880937A007D
:101600001092C1008DE195E003DD68E373E08DE1A8
:1016100095E07CDC60E473E08DE195E077DC80E8C8
:1016200094E0F6DC62E085E0D8D961E088E3D5D9C2
:1016300061E082E0D2D961E083E0CFD961E084E06B
:10164000CCD961E08CE3C9D961E08DE3C6D961E012
:1016500088E394D961E082E091D960E083E08ED99B
:1016600060E084E08BD960E08CE388D960E08DE3B2
:1016700085D968E473E080E894E033DC62E573E0E8
:1016800080E894E02EDC6CED72E080E894E029DCE8
:10169000D8DD811105C060E673E08DE195E036DCB0
:1016A000109214041092130410925D0410927F049F
:1016B000FCDB8091D105982F98609093D10512E0C2
:1016C0001093D5051092D605EBE3FDE03197F1F7C5
:1016D00088628AD88BE496E40197F1F78091D1056E
:1016E000806282D883E592E00197F1F78091D1057D
:1016F00080627AD88091D105806276D884E0809328
:10170000D2058CE071D881E06FD88BE39FE101971F
:10171000F1F71093D30586E067D860E080E032DD12
:101720006FEF88E02FDD60E281E02CDD6FEF84E079
:1017300029DD6FEF83E026DD6FEF82E023DD60E0DF
:1017400084E020DD60E083E01DDD6FEF82E01ADDE4
:1017500064E773E08DEC95E0D9DB80E8898380EC69
:101760008A83CE010196F6DC63E873E08DEC95E0A8
:10177000CDDB90E8492E28EC522E31E4632E31E087
:10178000732E47EEA42E41E0B42E51EA852E51E08F
:10179000952E8091C605811101C053DD84E10E9420
:1017A000CF0386E10E94CF038C0188E10E94CF0322
:1017B0007C018AE10E94CF036C018091C905909160
:1017C000CA05853D910519F154F4009729F1803C33
:1017D000910539F56AE970E080E090E021C0863F2C
:1017E000910581F08F3F910541F08B3E9105C9F441
:1017F00062E370E080E090E013C063E070E080E0BE
:1018000090E00EC068E170E080E090E009C065E61D
:1018100070E080E090E004C06CEB72E080E090E06B
:1018200018D9C801805293408D3B924008F048C0BF
:10183000C701885C91098132934008F041C0C6011C
:10184000885C91098132934008F03AC062E370E00D
:1018500080E090E0FED86CE873E08DE195E056DB27
:1018600060E070E0CB012DD968EE73E080E090E09D
:10187000F0D8BADD6A307105810591054CF480918C
:101880001104909112040196909312048093110414
:101890008DDB60EE73E984E090E013D980E090E0A6
:1018A00036DB49825A82CE01019654DC80911104C4
:1018B000909112041EDD68EE7EE683E090E04EC05B
:1018C000C801845F9140893E934008F063C0C7011E
:1018D000885E93408132934008F05CC0C601885C0A
:1018E00091098531954008F055C062E370E080E0D1
:1018F00090E0AFD867E973E08DE195E007DB60E049
:1019000070E0CB01DED868EE73E080E090E0A1D813
:101910006BDD6A307105810591054CF480911104ED
:1019200090911204019690931204809311043EDB6F
:1019300060EE73E984E090E0C4D881E090E0E7DAFB
:1019400049825A82CE01019605DC80911104909162
:101950001204CFDC60EF79E482E090E0B2D8F301CA
:101960008491F5010491F4011491112309F45FC0ED
:1019700081110E949502E12FF0E0EE0FFF1FEE575C
:10198000FE4FA591B4918C91082309F450C00E9498
:101990006202FFCE04511540013B144000F7F4E110
:1019A000EF1AF5E0FF0A21EBE21624E0F206B8F6A2
:1019B00084EFC81A81E0D80AE9EECE16E3E0DE062D
:1019C00008F0CDCF62E370E080E090E042D864EAB6
:1019D00073E08DE195E09ADA60E070E0CB0171D8B8
:1019E00003DD6A307105810591054CF48091110485
:1019F0009091120401969093120480931104D6DA08
:101A000060EE73E984E090E05CD882E090E07FDAF9
:101A100049825A82CE0101969DDB809111049091FA
:101A2000120467DC68EF74E281E090E097CF1092D7
:101A300012041092110449825A82CE0101968ADB67
:101A400062EB73E08DEC95E061DAA1CFE0E8F4E0C1
:101A50001382128288EE93E0A0E0B0E08483958345
:101A6000A683B78324E032E03183208345ED50E044
:101A70005587448744ED50E05787468740ED50E056
:101A8000518B408B41ED50E0538B428B42ED50E047
:101A9000558B448B46ED50E0578B468B118E128E42
:101AA000138E148EEDE1F5E0138212828483958308
:101AB000A683B7833183208325EC30E035872487E4
:101AC00024EC30E03787268720EC30E0318B208B08
:101AD00021EC30E0338B228B22EC30E0358B248BF1
:101AE00026EC30E0378B268B118E128E138E148EDF
:101AF000EAEBF5E01382128284839583A683B78391
:101B000086E192E091838083EDECF5E0138212820E
:101B100088E292E0918380838AE090E09093CC0504
:101B20008093CB05E6ECF5E01082148213821282DA
:101B300011820895A1E21A2EAA1BBB1BFD010DC044
:101B4000AA1FBB1FEE1FFF1FA217B307E407F5076D
:101B500020F0A21BB30BE40BF50B661F771F881F49
:101B6000991F1A9469F760957095809590959B01DF
:101B7000AC01BD01CF010895052E97FB16F400942A
:101B80000FD057FD05D0D6DF07FC02D046F408C0C1
:101B900050954095309521953F4F4F4F5F4F089599
:101BA00090958095709561957F4F8F4F9F4F0895C9
:101BB000EE0FFF1F881F8BBF0790F691E02D199441
:0C1BC00081E090E0F89400C0F894FFCFA2
:101BCC0000000000FB0147018B014102BC019A019E
:101BDC00AE01000000009D036E03CC0342036603BC
:101BEC00520343030000000005044701CC03CB0360
:101BFC004730205832303020592D3830205A31306F
:101C0C00302046323030303030300A0047302058E7
:101C1C0032303020592D3830205A2D343220463273
:101C2C003030303030300A004730205832303020DD
:101C3C005930205A3130302046323030303030304C
:101C4C000A0047302058323030205930205A2D3479
:101C5C00322046323030303030300A004730205895
:101C6C0032303020593830205A3130302046323022
:101C7C0030303030300A0047302058323030205964
:101C8C003830205A2D34322046323030303030301B
:101C9C000A004D323233312056300A00473020587A
:101CAC00313830205930205A3136302046323030DD
:101CBC00303030300A00473020583235302059311E
:101CCC003030205A313030204632303030303030E5
:101CDC000A00473020583235302059313030205AE4
:101CEC002D32352046323030303030300A004D3213
:101CFC003233312056310A00536C696465720A0024
:101D0C0056312E312E300A004D32343030205330C3
:101D1C000A004732323032204E33205639300A0016
:101D2C00636F6C6F722073656E736F722065727265
:101D3C006F72210020206775696465207261696C7F
:101D4C002020002020636F756E743A007265642049
:101D5C006D6F64650D0A00677265656E206D6F644A
:101D6C00650D0A0079656C6C6F77206D6F64650D7D
:0C1D7C000A002020202020202020000051
:00000001FF
